:1000000029C043C042C041C040C0F0C03EC03DC056
:100010003CC03BC03AC039C038C0A8C136C035C0AA
:1000200034C033C063C131C030C02FC02EC02DC01A
:100030002CC02BC09EC0A0C0A2C0A4C0A6C0A8C097
:10004000AAC0ACC0AEC0B0C0B2C0B4C0B6C0B8C028
:10005000BAC0BCC011241FBECFEFD4E0DEBFCDBFFD
:1000600011E0A0E0B1E0EEE8F9E002C005900D92E9
:10007000A039B107D9F712E0A0E9B1E001C01D92A3
:10008000AE32B107E1F7BCD089C1BACF00D000D001
:1000900080E091E0EDB7FEB79283818384E990E040
:1000A000948383837DD182E48093900181E6809361
:1000B000910194E790939201909393019CE6909321
:1000C000940195E69093950120E22093960127E410
:1000D000209397018093980122E7209399019093B0
:1000E0009A0197E690939B0190939C0180939D01C8
:1000F00010929E0110929F01E0EAF1E00F900F90A4
:100100000F900F901082369682E0E432F807D1F714
:1001100000D000D08CE191E0EDB7FEB792838183EF
:1001200080E991E0948383833BD10F900F900F90EF
:100130000F90089508950895EF92FF92CF93DF9363
:10014000E82EE7017E01F92EE70101C0B7D08991C1
:100150008823E1F7DF91CF91FF90EF9008951F93EF
:10016000182FE12FF0E0E031F105A8F5E65EFF4F32
:10017000099480E391E02CC082E391E029C084E3FC
:1001800091E026C086E391E023C088E391E020C09F
:100190008AE391E01DC08CE391E01AC08EE391E008
:1001A00017C080E491E014C082E491E011C084E4BF
:1001B00091E00EC086E491E00BC088E491E008C0B5
:1001C0008AE491E005C08CE491E002C08EE491E005
:1001D000B3DF1F91089580E0C2DF1F70C2CFACDF94
:1001E0008DE06CD08AE06AD0089508951F920F9236
:1001F0000FB60F9211240F900FBE0F901F901895FD
:100200001F93CF93DF9343D080E591E0DBD0C5D03F
:1002100083E691E0D7D01AB880EF8BB98FEF84B91D
:1002200087B98091810083608093810080916F0005
:10023000816080936F0010E0C6E7D1E0812F81706C
:10024000880F880F88B91F5F8FE794E8AEE181506F
:100250009040A040E1F700C0000000D000D0ADB752
:10026000BEB71296DC93CE931197812F90E08170E8
:100270009070880F991F880F991F14969C938E93E6
:1002800013978ED00F900F900F900F90D7CF1092A2
:10029000C5008AE08093C400E0ECF0E080818D7FAF
:1002A000808388E98093C10086E08093C20081E862
:1002B00091E090932B0280932A0208959091C000C0
:1002C00095FFFCCF8093C60008951F93182F8A30A6
:1002D00011F48DE0FADF812FF1DF1F9108958091F5
:1002E000C00087FFFCCF8091C60008951F920F9237
:1002F0000FB60F9211242F933F934F935F936F93F9
:100300007F938F939F93AF93BF93EF93FF93E7DF19
:100310008D3021F48CE791E055D001C0CFDFFF9103
:10032000EF91BF91AF919F918F917F916F915F916D
:100330004F913F912F910F900FBE0F901F901895E6
:10034000209124023091250240E050E0A90133279A
:1003500022278091840090918500A0E0B0E0282BB6
:10036000392B4A2B5B2BB901CA0108951F920F92BA
:100370000FB60F9211248F939F9380912402909136
:100380002502019690932502809324029F918F91DC
:100390000F900FBE0F901F9018950895F894F5C216
:1003A000A0E0B0E0E5EDF1E0C9C2FE013596619153
:1003B000719180912A0290912B02AF0137D0209643
:1003C000E2E0D8C2EF92FF920F931F93CF93DF9397
:1003D0008C01E0912A02F0912B02838181FF1FC0E2
:1003E000C0E0D0E00AC0DB011896ED91FC911997AE
:1003F0000995009711F0CFEFDFEFF80181918F01A0
:1004000060912A0270912B02882369F7DB0118960C
:10041000ED91FC9119978AE00995009711F0CFEFC3
:10042000DFEFCE01CDB7DEB7E6E0A0C2ACE0B0E0D2
:10043000EBE1F2E073C26C011B018A01FC0117823F
:100440001682838181FFC4C12E010894411C511C76
:10045000F6019381F10193FD859193FF81911F0135
:10046000882309F4B1C1853239F493FD859193FF56
:1004700081911F01853221F490E0B601C5D1E8CF0A
:10048000EE24FF2420E02032B0F48B3269F08C326D
:1004900028F4803251F0833271F40BC08D3239F080
:1004A000803349F421602CC02260246029C0286078
:1004B00027C0206125C027FD2CC0382F30533A308B
:1004C00098F426FF08C08E2D880FE82EEE0CEE0C57
:1004D000E80EE30E15C08F2D880FF82EFF0CFF0CD1
:1004E000F80EF30E20620CC08E3221F426FD6CC192
:1004F000206406C08C3611F4206802C0883649F4A6
:10050000F10193FD859193FF81911F01882309F0EB
:10051000BACF982F9554933018F09052933028F416
:100520000C5F1F4FFFE3F9830DC0833631F0833733
:1005300071F0833509F05CC021C0F80180818983A6
:100540000E5F1F4F420171E0A72EB12C15C062E073
:10055000662E712C600E711EF8018080918026FF3E
:1005600003C06E2D70E002C06FEF7FEFC4012C87D7
:1005700040D15C0183012C852F7716C052E0652E97
:10058000712C600E711EF8018080918026FF03C0DF
:100590006E2D70E002C06FEF7FEFC4012C871ED17B
:1005A0005C012C852068830123FD1EC007C080E20A
:1005B00090E0B6012C8728D1FA942C858F2D90E0FD
:1005C000A816B906A0F310C0F40127FD859127FFF6
:1005D00081914F0190E0B6012C8716D12C85F11046
:1005E000FA940894A108B108A114B10469F7E9C00C
:1005F000843611F0893641F527FF08C0F801608183
:100600007181828193810C5F1F4F09C0F801608165
:100610007181882777FD8095982F0E5F1F4F4FE6D9
:10062000B42EB22297FF09C0909580957095619580
:100630007F4F8F4F9F4FF0E8BF2AA2012AE030E0A2
:100640000FD1782E741844C0853731F43FEEB32EA5
:10065000B2222AE030E025C099EFB92EB2228F36BF
:10066000C1F0803720F4883509F0AEC00DC0803766
:1006700021F0883709F0A8C002C020E1B22AB4FEF8
:100680000BC084E0B82A08C0B4FE09C0E6E0BE2A68
:1006900006C028E030E005C020E130E002C020E1E3
:1006A00032E0B7FE08C0F8016081718182819381D8
:1006B0000C5F1F4F07C0F8016081718180E090E0FE
:1006C0000E5F1F4FA201CCD0782E7418FFE7BF2217
:1006D000B6FE0BC02EEFB2227E1438F4B4FE07C073
:1006E000B2FC05C08FEEB82202C0A72C01C0AE2C10
:1006F0008B2D90E0B4FE0DC0FE01E70DF11D2081B1
:10070000203319F4E9EEBE2209C0A394B2FE06C05C
:1007100004C086789070009709F0A3948B2C9924DC
:10072000B3FC13C0B0FE0EC0AF1428F4E72CEF0CDE
:10073000EA18AF2C07C0E72C05C080E290E0B601B4
:1007400063D0A394AF14C8F304C0AF1410F4FA1824
:1007500001C0FF2484FE0EC080E390E0B60154D0B7
:1007600082FE1DC081FE03C088E590E010C088E7CE
:1007700090E00DC0C40186789070009781F081FCF4
:1007800002C080E201C08BE2B7FC8DE290E0B601CE
:100790003BD005C080E390E0B60136D0EA947E14E9
:1007A000C8F37A94F201E70DF11D808190E0B60163
:1007B0002BD07720B1F705C080E290E0B60124D0BD
:1007C000FA94FF20C9F744CEF6012681378102C092
:1007D0002FEF3FEFC9012C96E2E1BCC0FC01059070
:1007E000615070400110D8F7809590958E0F9F1F33
:1007F0000895FC016150704001900110D8F7809578
:1008000090958E0F9F1F08950F931F93CF93DF93A3
:100810008C01EB018B8181FF1BC082FF0DC02E81FB
:100820003F818C819D812817390764F4E881F98123
:100830000193F983E88306C0E885F985802F09953F
:10084000009731F48E819F8101969F838E8302C031
:100850000FEF1FEFC801DF91CF911F910F91089506
:10086000FA01AA27283051F1203181F1E8946F93E1
:100870006E7F6E5F7F4F8F4F9F4FAF4FB1E03ED087
:10088000B4E03CD0670F781F891F9A1FA11D680F25
:10089000791F8A1F911DA11D6A0F711D811D911D58
:1008A000A11D20D009F468943F912AE0269F1124CD
:1008B0003019305D3193DEF6CF010895462F477031
:1008C000405D4193B3E00FD0C9F7F6CF462F4F708C
:1008D000405D4A3318F0495D31FD4052419302D0EA
:1008E000A9F7EACFB4E0A695979587957795679590
:1008F000BA95C9F700976105710508959B01AC0190
:100900000A2E06945795479537952795BA95C9F7B6
:10091000620F731F841F951FA01D08952F923F9291
:100920004F925F926F927F928F929F92AF92BF92FF
:10093000CF92DF92EF92FF920F931F93CF93DF93AB
:10094000CDB7DEB7CA1BDB0B0FB6F894DEBF0FBE08
:10095000CDBF09942A88398848885F846E847D8455
:100960008C849B84AA84B984C884DF80EE80FD8057
:100970000C811B81AA81B981CE0FD11D0FB6F894CD
:0E098000DEBF0FBECDBFED010895F894FFCF8E
:10098E00612070726F66696C652069732025642022
:10099E006279746573206C6F6E670A0050726F66B1
:1009AE00696C65202573206C6F616465642E0A0086
:1009BE00300031003200330034003500360037008D
:1009CE003800390061006200630064006500660053
:1009DE00555341525420696E697469616C697A6528
:1009EE00642E00566964656F20696E697469616C66
:1009FE00697A65642E00433D25640A000A4F4B2E2A
:100A0E000000000002000000006501000000000070
:00000001FF
