:1000000029C043C042C0E4C021C13FC03EC03DC082
:100010003CC03BC03AC039C038C0D2C136C035C080
:1000200034C033C08DC131C030C02FC02EC02DC0F0
:100030002CC02BC091C093C095C097C099C09BC0E5
:100040009DC09FC0A1C0A3C0A5C0A7C0A9C0ABC090
:10005000ADC0AFC011241FBECFEFD4E0DEBFCDBF17
:1000600011E0A0E0B1E0E6E9F4E002C005900D92F5
:10007000AA34B107D9F711E0AAE4B1E001C01D929A
:10008000A635B107E1F711D1B3C1BACF882311F07A
:100090005A9A08955A980895882311F05B9A089502
:1000A0005B980895882311F05C9A08955C980895F0
:1000B000882311F05D9A08955D980895389A409AC2
:1000C000399A419A569A5E9A579A5F9A2098289A36
:1000D000EBE6F0E0808181608083529A5A9A219801
:1000E000299A808182608083539A5B9A22982A9A07
:1000F000808184608083549A5C9A3B98439AECE6B2
:10010000F0E0808188608083559A5D9AE8E6F0E0AF
:100110008081816080838081826080830895EF92F6
:10012000FF92CF93DF93E82EE7017E01F92EE701DE
:1001300001C0EED089918823E1F7DF91CF91FF9044
:10014000EF9008951F93182FE12FF0E0E031F105B3
:10015000A8F5E65EFF4F099480E091E02CC082E0B4
:1001600091E029C084E091E026C086E091E023C0C0
:1001700088E091E020C08AE091E01DC08CE091E031
:100180001AC08EE091E017C080E191E014C082E1D6
:1001900091E011C084E191E00EC086E191E00BC0D6
:1001A00088E191E008C08AE191E005C08CE191E02E
:1001B00002C08EE191E0B3DF1F91089580E0C2DFBD
:1001C0001F70C2CFACDF8DE0A3D08AE0A1D008952C
:1001D0001F920F920FB60F9211240F931F932F931C
:1001E0003F934F935F936F937F938F939F93AF93BF
:1001F000BF93EF93FF9313B100914A01012710932E
:100200004A0100FF03C0812F817040DF01FF04C05D
:10021000812F8695817040DF02FF05C0812F869572
:10022000869581703FDFFF91EF91BF91AF919F91D4
:100230008F917F916F915F914F913F912F911F917E
:100240000F910F900FBE0F901F9018951F920F9255
:100250000FB60F9211242F933F934F935F936F9399
:100260007F938F939F93AF93BF93EF93FF9386B149
:1002700090914B01982780934B0193FF05C0869581
:1002800086958695817014DFFF91EF91BF91AF91B4
:100290009F918F917F916F915F914F913F912F919E
:1002A0000F900FBE0F901F90189508DF80E291E02D
:1002B000A1D03A9A429A78948FE794E8AEE18150BF
:1002C0009040A040E1F700C0000042988FE794E81A
:1002D000AEE181509040A040E1F700C00000429A9A
:1002E000EBCF1092C5008AE08093C400E0ECF0E010
:1002F00080818D7F808388E98093C10086E0809330
:10030000C2008BE391E090935301809352010895D2
:100310009091C00095FFFCCF8093C60008951F9375
:10032000182F8A3011F48DE0FADF812FF1DF1F9151
:1003300008958091C00087FFFCCF8091C60008958A
:100340001F920F920FB60F9211242F933F934F934A
:100350005F936F937F938F939F93AF93BF93EF932D
:10036000FF93E7DF8D3021F486E391E043D001C0B5
:10037000CFDFFF91EF91BF91AF919F918F917F91CF
:100380006F915F914F913F912F910F900FBE0F9002
:100390001F90189520914C0130914D0140E050E0A4
:1003A000A901332722278091840090918500A0E045
:1003B000B0E0282B392B4A2B5B2BB901CA010895D9
:1003C0001F920F920FB60F9211248F939F938091DB
:1003D0004C0190914D01019690934D0180934C01F9
:1003E0009F918F910F900FBE0F901F9018950895B9
:1003F000F8944FC0EF92FF920F931F93CF93DF9328
:100400008C01E0915201F0915301838181FF1FC063
:10041000C0E0D0E00AC0DB011896ED91FC9119977D
:100420000995009711F0CFEFDFEFF80181918F016F
:100430006091520170915301882369F7DB0118968E
:10044000ED91FC9119978AE00995009711F0CFEF93
:10045000DFEFCE01CDB7DEB7E6E00CC02A883988E1
:1004600048885F846E847D848C849B84AA84B9844C
:10047000C884DF80EE80FD800C811B81AA81B98158
:10048000CE0FD11D0FB6F894DEBF0FBECDBFED016C
:060490000895F894FFCF6F
:1004960030003100320033003400350036003700BA
:1004A6003800390061006200630064006500660080
:1004B6004175746F6669726520696E697469616CED
:1004C600697A65642E000A4F4B2E00000000020078
:0A04D6000000008F0100000000008C
:00000001FF
