:1000000029C043C042C01AC157C13FC03EC03DC015
:100010003CC03BC03AC039C038C001C236C035C050
:1000200034C033C0BCC131C030C02FC02EC02DC0C1
:100030002CC02BC0C7C0C9C0CBC0CDC0CFC0D1C0A1
:10004000D3C0D5C0D7C0D9C0DBC0DDC0DFC0E1C0E0
:10005000E3C0E5C011241FBECFEFD4E0DEBFCDBFAB
:1000600011E0A0E0B1E0EEECF8E002C005900D92E6
:10007000A036B107D9F711E0A0E6B1E001C01D92AA
:10008000AE37B107E1F750D128C2BACF91E0811164
:1000900090E090936001882329F081E080936101D2
:1000A0005A9A08955A98089591E0811190E090939A
:1000B0006201882319F081E080936301089591E043
:1000C000811190E090936401882319F081E080937E
:1000D00065010895882311F05D9A08955D9808954B
:1000E000389A409A399A419A569A5E9A579A5F9AE4
:1000F0002098289AEBE6F0E0808181608083529A14
:100100005A9A2198299A808182608083539A5B9AB7
:1001100022982A9A808184608083549A5C9A3B98C2
:10012000439AECE6F0E0808188608083559A5D9A7E
:10013000E8E6F0E080818160808380818260808356
:100140000895EF92FF920F931F937B018C012CE394
:1001500030E040E050E07CD36115710581059105E8
:1001600011F442980DC0C801B7012EE130E040E023
:1001700050E06ED3611571058105910509F4429A2D
:100180001F910F91FF90EF900895EF92FF92CF9300
:10019000DF93E82EE7017E01F92EE70101C0E7D0E9
:1001A00089918823E1F7DF91CF91FF90EF90089537
:1001B0001F93182FE12FF0E0E031F105A8F5E65E7E
:1001C000FF4F099483E091E02CC085E091E029C0C5
:1001D00087E091E026C089E091E023C08BE091E0C8
:1001E00020C08DE091E01DC08FE091E01AC081E158
:1001F00091E017C083E191E014C085E191E011C066
:1002000087E191E00EC089E191E00BC08BE191E0C4
:1002100008C08DE191E005C08FE191E002C081E26C
:1002200091E0B3DF1F91089580E0C2DF1F70C2CF5D
:10023000ACDF8DE09CD08AE09AD008951F920F9297
:100240000FB60F9211240F931F932F933F934F9349
:100250005F936F937F938F939F93AF93BF93EF932E
:10026000FF9313B10091660101271093660100FF0F
:1002700003C0812F81700ADF01FF04C0812F8695A2
:10028000817012DF02FF05C0812F869586958170EF
:1002900016DFFF91EF91BF91AF919F918F917F9169
:1002A0006F915F914F913F912F911F910F910F90FF
:1002B0000FBE0F901F9018951F920F920FB60F92BE
:1002C00011240F931F932F933F934F935F936F933B
:1002D0007F938F939F93AF93BF93EF93FF9316B149
:1002E0000091670101271093670103FF06C0812F6A
:1002F0008695869586958170EDDE04FF02C014FF19
:10030000A6D0FF91EF91BF91AF919F918F917F9177
:100310006F915F914F913F912F911F910F910F908E
:100320000FBE0F901F901895CBD083E291E0D7D0ED
:10033000D7DE86E391E0D3D03A9A429A7894FFCF01
:100340001092C5008AE08093C400E0ECF0E0808168
:100350008D7F808388E98093C10086E08093C2000E
:1003600081E591E090937B0180937A0108959091CB
:10037000C00095FFFCCF8093C60008951F93182FEF
:100380008A3011F48DE0FADF812FF1DF1F9108959B
:100390008091C00087FFFCCF8091C60008951F9216
:1003A0000F920FB60F9211242F933F934F935F93A9
:1003B0006F937F938F939F93AF93BF93EF93FF932D
:1003C000E7DF8D3021F48CE491E089D001C0CFDFEC
:1003D000FF91EF91BF91AF919F918F917F916F911D
:1003E0005F914F913F912F910F900FBE0F901F90F3
:1003F0001895209168013091690140E050E0A90111
:10040000332722278091840090918500A0E0B0E0FE
:10041000282B392B4A2B5B2BB901CA0108951F9257
:100420000F920FB60F9211248F939F9380916801C2
:1004300090916901019690936901809368019F9161
:100440008F910F900FBE0F901F9018950895609197
:100450006C0170916D0180916E0190916F016F5FE1
:100460007F4F8F4F9F4F60936C0170936D0180930E
:100470006E0190936F0110926B0110926A0161DE20
:100480000895609174017091750180917601909149
:10049000770126E0660F771F881F991F2A95D1F7ED
:1004A000E6D09B01AC0160E876E988E99BE44BD09B
:1004B00020E030E04AE754E468D1ADD0CB010895A4
:1004C0003C984498ECE6F0E0808180618083E8E627
:1004D000F0E08081826080830895F894F6C1EF9205
:1004E000FF920F931F93CF93DF938C01E0917A01DA
:1004F000F0917B01838181FF1FC0C0E0D0E00AC082
:10050000DB011896ED91FC9119970995009711F070
:10051000CFEFDFEFF80181918F0160917A01709147
:100520007B01882369F7DB011896ED91FC911997FF
:100530008AE00995009711F0CFEFDFEFCE01CDB73C
:10054000DEB7E6E0B3C10CD0E6C0DED040F0D5D0D7
:1005500030F021F45F3F19F0C7C0511110C1CAC07B
:10056000EBD098F39923C9F35523B1F3951B550BA1
:10057000BB27AA2762177307840738F09F5F5F4F76
:10058000220F331F441FAA1FA9F333D00E2E3AF0B7
:10059000E0E830D091505040E695001CCAF729D0D1
:1005A000FE2F27D0660F771F881FBB1F2617370720
:1005B0004807AB07B0E809F0BB0B802DBF01FF2750
:1005C00093585F4F2AF09E3F510568F08DC0D7C009
:1005D0005F3FECF3983EDCF3869577956795B7958A
:1005E000F7959F5FC9F7880F911D9695879597F9A5
:1005F0000895E1E0660F771F881FBB1F621773071E
:100600008407BA0720F0621B730B840BBA0BEE1F32
:1006100088F7E095089598D088F09F5790F0B92F0B
:100620009927B751A0F0D1F0660F771F881F991F47
:100630001AF0BA95C9F712C0B13081F09FD0B1E07D
:1006400008959CC0672F782F8827B85F39F0B93F8D
:10065000CCF3869577956795B395D9F73EF4909549
:100660008095709561957F4F8F4F9F4F0895E894C7
:1006700009C097FB3EF490958095709561957F4FEA
:100680008F4F9F4F9923A9F0F92F96E9BB27939598
:10069000F695879577956795B795F111F8CFFAF4A8
:1006A000BB0F11F460FF1BC06F5F7F4F8F4F9F4FD9
:1006B00016C0882311F096E911C0772321F09EE837
:1006C000872F762F05C0662371F096E8862F70E09D
:1006D00060E02AF09A95660F771F881FDAF7880F77
:1006E0009695879597F9089597F99F6780E870E048
:1006F00060E008959FEF80EC089500240A94161698
:10070000170618060906089500240A9412161306FF
:10071000140605060895092E0394000C11F488238D
:1007200052F0BB0F40F4BF2B11F460FF04C06F5FA9
:100730007F4F8F4F9F4F089557FD9058440F551F7F
:1007400059F05F3F71F04795880F97FB991F61F053
:100750009F3F79F087950895121613061406551FCA
:10076000F2CF4695F1DF08C0161617061806991F36
:10077000F1CF86957105610508940895E894BB272B
:1007800066277727CB0197F908950BD0C4CFB5DF43
:1007900028F0BADF18F0952309F0A6CFABCF1124CB
:1007A000EECFCADFA0F3959FD1F3950F50E0551F10
:1007B000629FF001729FBB27F00DB11D639FAA27B6
:1007C000F00DB11DAA1F649F6627B00DA11D661F05
:1007D000829F2227B00DA11D621F739FB00DA11D26
:1007E000621F839FA00D611D221F749F3327A00DE0
:1007F000611D231F849F600D211D822F762F6A2F7C
:1008000011249F5750408AF0E1F088234AF0EE0F00
:10081000FF1FBB1F661F771F881F91505040A9F70D
:100820009E3F510570F060CFAACF5F3FECF3983E3A
:10083000DCF3869577956795B795F795E7959F5F74
:10084000C1F7FE2B880F911D9695879597F908950E
:10085000A1E21A2EAA1BBB1BFD010DC0AA1FBB1FC4
:10086000EE1FFF1FA217B307E407F50720F0A21B36
:10087000B30BE40BF50B661F771F881F991F1A94A3
:1008800069F760957095809590959B01AC01BD01CD
:10089000CF0108952A88398848885F846E847D84D2
:1008A0008C849B84AA84B984C884DF80EE80FD8018
:1008B0000C811B81AA81B981CE0FD11D0FB6F8948E
:0E08C000DEBF0FBECDBFED010895F894FFCF4F
:1008CE0006023C3000310032003300340035003671
:1008DE000037003800390061006200630064006573
:1008EE00006600566964656F20696E697469616C93
:1008FE00697A65642E004175746F66697265206948
:10090E006E697469616C697A65642E000A4F4B2EAC
:10091E00000000000200000000BE01000000000008
:00000001FF
