:1000000019C033C032C031C030C0A9C02EC02DC00D
:100010002CC02BC02AC029C028C027C026C025C09C
:1000200024C023C0F5C021C020C01FC01EC01DC0F9
:100030001CC01BC011241FBECFEFD4E0DEBFCDBF5C
:1000400011E0A0E0B1E0E8E5F8E002C005900D9213
:10005000AC34B107D9F711E0ACE4B1E001C01D92B6
:10006000A535B107E1F702D007C1CACF0F931F939F
:10007000CF93DF9397D01AB88CEF8BB984E080933D
:100080006D008FEF84B9809181008360809381003F
:1000900080E091E005D100E513ECC8E2D1E0C801B1
:1000A0000197F1F7209184003091850089B100D04B
:1000B00000D000D0EDB7FEB73196ADB7BEB71296FF
:1000C000DC93CE9311973383228386958695817036
:1000D00084831582D3D08DB79EB706960FB6F89459
:1000E0009EBF0FBE8DBFDBCF0F931F9329B1009131
:1000F0008400109185004DB75EB7485050400FB650
:10010000F8945EBF0FBE4DBFEDB7FEB731968FE2DC
:1001100091E0ADB7BEB712969C938E93119713835F
:10012000028380914D0190914E01A801481B590B0B
:1001300055834483269526952170268317829ED069
:1001400010934E0100934D018DB79EB708960FB6E0
:10015000F8949EBF0FBE8DBF1F910F9108951F92FF
:100160000F920FB60F9211242F933F934F935F93EB
:100170006F937F938F939F93AF93BF93EF93FF936F
:10018000B3DFFF91EF91BF91AF919F918F917F91DD
:100190006F915F914F913F912F910F900FBE0F90F4
:1001A0001F9018951092C5008AE08093C400E0EC7F
:1001B000F0E080818D7F808388E98093C10086E0B4
:1001C0008093C2008EE391E090935201809351019D
:1001D0000895982F8091C00085FFFCCF9093C600B2
:1001E00008958091C00087FFFCCF8091C6000895DC
:1001F0001F93182F8A3011F48DE0FADF8091C00030
:1002000085FFFCCF1093C60080E090E01F91089519
:100210001F920F920FB60F9211242F933F934F937B
:100220005F936F937F938F939F93AF93BF93EF935E
:10023000FF938091C00087FFFCCF9091C6009D3056
:1002400021F489E391E02CD006C08091C00085FFA5
:10025000FCCF9093C600FF91EF91BF91AF919F911A
:100260008F917F916F915F914F913F912F910F905F
:100270000FBE0F901F901895F894ECC2A0E0B0E06C
:10028000E3E4F1E0C0C2FE01359661917191809185
:10029000510190915201AF0138D02096E2E0CFC2D7
:1002A0000F931F93CF93DF938C01E0915101F09155
:1002B0005201838181FF21C0C0E0D0E00DC0E091F8
:1002C0005101F091520120853185BF01F901099555
:1002D000892B11F0CFEFDFEFF80181918F01882397
:1002E00071F7E0915101F0915201208531858AE04A
:1002F000BF01F9010995892B11F0CFEFDFEFCE0196
:10030000DF91CF911F910F910895ABE0B0E0EAE843
:10031000F1E069C23C012B015A01FC0117821682EF
:10032000838181FD03C06FEF7FEFB9C19AE0892E11
:100330001E010894211C311CF3012381F20123FDCD
:10034000859123FF81912F01882309F4A5C185326E
:1003500039F423FD859123FF81912F01853221F40A
:1003600090E0B301B6D1E8CF982FFF24EE24992472
:10037000FFE1FF15D0F09B3269F09C3228F49032F7
:1003800059F0933291F40EC09D3249F0903369F4E4
:1003900041E024C052E0F52A84E0F82A28C098E021
:1003A000F92A25C0E0E1FE2A22C0F7FC29C0892FE6
:1003B00080538A3070F4F6FE05C0989C902C11246E
:1003C000980E15C0E89CE02C1124E80EF0E2FF2AFC
:1003D0000EC09E3229F4F6FC5FC140E4F42A07C047
:1003E0009C3619F450E8F52A02C0983649F4F20117
:1003F00023FD959123FF91912F01992309F0B8CF07
:10040000892F8554833018F08052833038F444E0CB
:1004100050E0A40EB51E5FE359830FC0933631F050
:10042000933779F0933509F052C01FC0F5018081F0
:10043000898342E050E0A40EB51E610101E010E0A6
:1004400011C0F501C080D180F6FC03C06FEF7FEFD3
:1004500002C0692D70E042E050E0A40EB51EC60156
:100460002DD18C015FE7F52213C0F501C080D1804A
:10047000F6FC03C06FEF7FEF02C0692D70E042E031
:1004800050E0A40EB51EC6010ED18C0150E8F52A2D
:10049000F3FE06C018C080E290E0B3011AD1EA94DE
:1004A0008E2D90E008171907B0F30DC0F601F7FC88
:1004B0008591F7FE81916F0190E0B3010AD1E110BF
:1004C000EA94015010400115110581F7E2C09436FD
:1004D00011F0993661F5F7FE08C0F50120813181F0
:1004E0004281538184E090E00AC0F50180819181CE
:1004F0009C01442737FD4095542F82E090E0A80EE0
:10050000B91E9FE6F92257FF09C0509540953095D6
:1005100021953F4F4F4F5F4FE0E8FE2ACA01B901D6
:10052000A1012AE030E001D1D82ED2183FC0953782
:1005300029F41F2D1F7E2AE030E01DC01F2D197FDA
:100540009F3661F0903720F4983509F0A5C00FC0B0
:10055000903739F0983709F09FC004C028E030E0A8
:100560000AC0106114FD146020E130E004C014FDE5
:10057000166020E132E017FF08C0F501608171814B
:100580008281938144E050E008C0F501808191812F
:10059000BC0180E090E042E050E0A40EB51EA10155
:1005A000C4D0D82ED2188FE7F82EF122F6FE0BC059
:1005B0005EEFF522D91438F4F4FE07C0F2FC05C052
:1005C0008FEEF82202C01D2D01C0192DF4FE0DC0C2
:1005D000FE01ED0DF11D8081803319F499EEF922B1
:1005E00008C01F5FF2FE05C003C08F2D867809F09A
:1005F0001F5F0F2DF3FC13C0F0FE0EC01E1510F090
:100600009D2C0AC09D2C9E0C911A1E2D05C080E2C7
:1006100090E0B3015ED01F5F1E15C8F304C01E1525
:1006200010F4E11A01C0EE2404FF0EC080E390E054
:10063000B3014FD002FF1BC001FD03C088E790E06B
:100640000EC088E590E00BC0802F867881F001FF16
:1006500002C08BE201C080E2F7FC8DE290E0B301C2
:1006600038D005C080E390E0B30133D09A94D91418
:10067000C8F3DA94F101ED0DF11D808190E0B30132
:1006800028D0DD20B1F705C080E290E0B30121D091
:10069000EA94EE20C9F750CEF30166817781CB0151
:1006A0002B96E2E1BCC0FC01059061507040011046
:1006B000D8F7809590958E0F9F1F0895FC0161508B
:1006C000704001900110D8F7809590958E0F9F1F74
:1006D00008950F931F93CF93DF938C01EB018B81D0
:1006E00081FF1BC082FF0DC02E813F818C819D81C7
:1006F0002817390764F4E881F9810193F983E883C5
:1007000006C0E885F985802F0995892B31F48E8103
:100710009F8101969F838E8302C00FEF1FEFC80158
:10072000DF91CF911F910F910895FA01AA272830E8
:1007300051F1203181F1E8946F936E7F6E5F7F4FAE
:100740008F4F9F4FAF4FB1E03ED0B4E03CD0670F2A
:10075000781F891F9A1FA11D680F791F8A1F911D7D
:10076000A11D6A0F711D811D911DA11D20D009F4CD
:1007700068943F912AE0269F11243019305D31930F
:10078000DEF6CF010895462F4770405D4193B3E0F8
:100790000FD0C9F7F6CF462F4F70405D4A3318F09F
:1007A000495D31FD4052419302D0A9F7EACFB4E050
:1007B000A6959795879577956795BA95C9F7009708
:1007C0006105710508959B01AC010A2E06945795A9
:1007D000479537952795BA95C9F7620F731F841F00
:1007E000951FA01D08952F923F924F925F926F9296
:1007F0007F928F929F92AF92BF92CF92DF92EF92B1
:10080000FF920F931F93CF93DF93CDB7DEB7CA1B31
:10081000DB0B0FB6F894DEBF0FBECDBF09942A885C
:10082000398848885F846E847D848C849B84AA8404
:10083000B984C884DF80EE80FD800C811B81AA8191
:10084000B981CE0FD11D0FB6F894DEBF0FBECDBF5C
:08085000ED010895F894FFCFBB
:10085800426F6F74696E6720457268756E6527739D
:100868002073757065722D676967612D6175746F86
:10087800666972652E2E2E0025752C25640A0025C2
:10088800752C25642C25640A000A4F4B2E000000A5
:0C089800000200000000F800000000005A
:00000001FF
