:1000000019C0C1C032C031C030C0B3C02EC02DC075
:100010002CC02BC02AC029C028C0D8C026C025C0EB
:1000200024C023C099C121C020C01FC01EC01DC054
:100030001CC01BC011241FBECFEFD4E0DEBFCDBF5C
:1000400011E0A0E0B1E0EEEEFCE002C005900D9200
:10005000A033B107D9F711E0A0E3B1E001C01D92D0
:10006000AC37B107E1F7C9D0ABC1CACF209130019D
:100070003091310140E050E0A901332722278091DF
:10008000840090918500A0E0B0E0282B392B4A2B0A
:100090005B2BB901CA010895609132018091300152
:1000A00090913101A0E0B0E0DC01992788272091F0
:1000B000840030918500E62FF0E0EE0FFF1FEE0F79
:1000C000FF1FEA5CFE4F40E050E0822B932BA42BF5
:1000D000B52B80839183A283B3836F5F60933201DA
:1000E000603111F410923201089580913201A82FED
:1000F000B0E0FD01EE0FFF1FEE0FFF1FEA5CFE4FA9
:100100002081318142815381882359F0AA0FBB1F7E
:10011000AA0FBB1FAE5CBE4F6D917D918D919C91DE
:1001200008C0609172017091730180917401909187
:100130007501621B730B840B950B2FE030E040E0E0
:1001400050E07AD5CA01B90118D220E030E040E889
:1001500052E4A1D29B01AC0160E876E988E99BE416
:1001600078D120E030E04AE754E495D2DAD1CB01EF
:1001700008951F920F920FB60F9211240F900FBE89
:100180000F901F9018951F920F920FB60F92112487
:100190002F933F934F935F936F937F938F939F938F
:1001A000AF93BF93EF93FF9377DFFF91EF91BF91F1
:1001B000AF919F918F917F916F915F914F913F91FF
:1001C0002F910F900FBE0F901F9018951F920F92B6
:1001D0000FB60F9211248F939F93809130019091CD
:1001E0003101019690933101809330019F918F915D
:1001F0000F900FBE0F901F9018950F931F93CF93E2
:10020000DF9374D080916900826080936900E89ADE
:100210001AB888EF8BB98FEF84B980918100836021
:100220008093810080916F00816080936F0080E0F7
:1002300091E0DAD0789420E137E20BE011E0C4EFEE
:10024000D1E005C0CE010197F1F7215030402115D2
:100250003105C1F74ADF00D000D0EDB7FEB71283F9
:10026000018394838383AED020E137E20F900F9017
:100270000F900F90E7CF0F931F9329B10091840047
:10028000109185004DB75EB7485050400FB6F894B6
:100290005EBF0FBE4DBFEDB7FEB7319683E191E073
:1002A000ADB7BEB712969C938E93119713830283BA
:1002B0008091340190913501A801481B590B558359
:1002C0004483269526952170268317827BD0109330
:1002D0003501009334018DB79EB708960FB6F89498
:1002E0009EBF0FBE8DBF1F910F9108951092C50044
:1002F0008AE08093C400E0ECF0E080818D7F808311
:1003000088E98093C10086E08093C20082E291E098
:1003100090937901809378010895982F8091C0007F
:1003200085FFFCCF9093C60008958091C00087FFA1
:10033000FCCF8091C60008951F93182F8A3011F4C6
:100340008DE0FADF8091C00085FFFCCF1093C600DE
:1003500080E090E01F9108951F920F920FB60F92C8
:1003600011242F933F934F935F936F937F938F93BA
:100370009F93AF93BF93EF93FF938091C00087FF4C
:10038000FCCF9091C6009D3021F48DE191E02CD0FE
:1003900006C08091C00085FFFCCF9093C600FF91FE
:1003A000EF91BF91AF919F918F917F916F915F91ED
:1003B0004F913F912F910F900FBE0F901F90189566
:1003C000F89493C4A0E0B0E0E7EEF1E067C4FE016A
:1003D0003596619171918091780190917901AF0189
:1003E000BDD12096E2E076C40F931F93CF93DF93A5
:1003F0008C01E0917801F0917901838181FF21C026
:10040000C0E0D0E00DC0E0917801F0917901208545
:100410003185BF01F9010995892B11F0CFEFDFEF8D
:10042000F80181918F01882371F7E0917801F091B3
:100430007901208531858AE0BF01F9010995892B71
:1004400011F0CFEFDFEFCE01DF91CF911F910F9130
:1004500008950CD0E6C0DED040F0D5D030F021F4C5
:100460005F3F19F0C7C0511110C1CAC0EBD098F35B
:100470009923C9F35523B1F3951B550BBB27AA2725
:1004800062177307840738F09F5F5F4F220F331F97
:10049000441FAA1FA9F333D00E2E3AF0E0E830D063
:1004A00091505040E695001CCAF729D0FE2F27D066
:1004B000660F771F881FBB1F261737074807AB0734
:1004C000B0E809F0BB0B802DBF01FF2793585F4FA9
:1004D0002AF09E3F510568F08DC0D7C05F3FECF316
:1004E000983EDCF3869577956795B795F7959F5F6E
:1004F000C9F7880F911D9695879597F90895E1E0C2
:10050000660F771F881FBB1F621773078407BA0720
:1005100020F0621B730B840BBA0BEE1F88F7E0957B
:10052000089598D088F09F5790F0B92F9927B75128
:10053000A0F0D1F0660F771F881F991F1AF0BA95A7
:10054000C9F712C0B13081F09FD0B1E008959CC0CE
:10055000672F782F8827B85F39F0B93FCCF386959D
:1005600077956795B395D9F73EF4909580957095FA
:1005700061957F4F8F4F9F4F0895E89409C097FB77
:100580003EF490958095709561957F4F8F4F9F4F6A
:100590009923A9F0F92F96E9BB279395F6958795AE
:1005A00077956795B795F111F8CFFAF4BB0F11F471
:1005B00060FF1BC06F5F7F4F8F4F9F4F16C0882318
:1005C00011F096E911C0772321F09EE8872F762F4E
:1005D00005C0662371F096E8862F70E060E02AF08F
:1005E0009A95660F771F881FDAF7880F969587957B
:1005F00097F9089597F99F6780E870E060E00895A3
:100600009FEF80EC089500240A941616170618062A
:100610000906089500240A94121613061406050606
:100620000895092E0394000C11F4882352F0BB0F97
:1006300040F4BF2B11F460FF04C06F5F7F4F8F4FFA
:100640009F4F089557FD9058440F551F59F05F3F35
:1006500071F04795880F97FB991F61F09F3F79F0E4
:1006600087950895121613061406551FF2CF469566
:10067000F1DF08C0161617061806991FF1CF8695E8
:100680007105610508940895E894BB2766277727CC
:10069000CB0197F908950BD0C4CFB5DF28F0BADFAE
:1006A00018F0952309F0A6CFABCF1124EECFCADF07
:1006B000A0F3959FD1F3950F50E0551F629FF00175
:1006C000729FBB27F00DB11D639FAA27F00DB11DCE
:1006D000AA1F649F6627B00DA11D661F829F222757
:1006E000B00DA11D621F739FB00DA11D621F839FDE
:1006F000A00D611D221F749F3327A00D611D231FB4
:10070000849F600D211D822F762F6A2F11249F5701
:1007100050408AF0E1F088234AF0EE0FFF1FBB1F24
:10072000661F771F881F91505040A9F79E3F5105C3
:1007300070F060CFAACF5F3FECF3983EDCF3869574
:1007400077956795B795F795E7959F5FC1F7FE2B6E
:10075000880F911D9695879597F90895ABE0B0E0C5
:10076000E3EBF3E08BC23C012B015A01FC01178241
:100770001682838181FD03C06FEF7FEFB9C19AE0DC
:10078000892E1E010894211C311CF3012381F201E2
:1007900023FD859123FF81912F01882309F4A5C1B1
:1007A000853239F423FD859123FF81912F01853214
:1007B00021F490E0B301B6D1E8CF982FFF24EE24C6
:1007C0009924FFE1FF15D0F09B3269F09C3228F4A8
:1007D000903259F0933291F40EC09D3249F090332B
:1007E00069F441E024C052E0F52A84E0F82A28C0E8
:1007F00098E0F92A25C0E0E1FE2A22C0F7FC29C0D2
:10080000892F80538A3070F4F6FE05C0989C902C96
:100810001124980E15C0E89CE02C1124E80EF0E29B
:10082000FF2A0EC09E3229F4F6FC5FC140E4F42A90
:1008300007C09C3619F450E8F52A02C0983649F4EE
:10084000F20123FD959123FF91912F01992309F046
:10085000B8CF892F8554833018F08052833038F414
:1008600044E050E0A40EB51E5FE359830FC09336F9
:1008700031F0933779F0933509F052C01FC0F5017C
:100880008081898342E050E0A40EB51E610101E041
:1008900010E011C0F501C080D180F6FC03C06FEFFD
:1008A0007FEF02C0692D70E042E050E0A40EB51E5B
:1008B000C6012DD18C015FE7F52213C0F501C08080
:1008C000D180F6FC03C06FEF7FEF02C0692D70E0AE
:1008D00042E050E0A40EB51EC6010ED18C0150E8D6
:1008E000F52AF3FE06C018C080E290E0B3011AD1E9
:1008F000EA948E2D90E008171907B0F30DC0F601A9
:10090000F7FC8591F7FE81916F0190E0B3010AD168
:10091000E110EA94015010400115110581F7E2C081
:10092000943611F0993661F5F7FE08C0F501208183
:1009300031814281538184E090E00AC0F5018081D9
:1009400091819C01442737FD4095542F82E090E02F
:10095000A80EB91E9FE6F92257FF09C05095409591
:10096000309521953F4F4F4F5F4FE0E8FE2ACA0177
:10097000B901A1012AE030E001D1D82ED2183FC040
:10098000953729F41F2D1F7E2AE030E01DC01F2D52
:10099000197F9F3661F0903720F4983509F0A5C093
:1009A0000FC0903739F0983709F09FC004C028E095
:1009B00030E00AC0106114FD146020E130E004C092
:1009C00014FD166020E132E017FF08C0F5016081D8
:1009D00071818281938144E050E008C0F5018081FB
:1009E0009181BC0180E090E042E050E0A40EB51E91
:1009F000A101C4D0D82ED2188FE7F82EF122F6FE2E
:100A00000BC05EEFF522D91438F4F4FE07C0F2FCF7
:100A100005C08FEEF82202C01D2D01C0192DF4FE75
:100A20000DC0FE01ED0DF11D8081803319F499EEAA
:100A3000F92208C01F5FF2FE05C003C08F2D867823
:100A400009F01F5F0F2DF3FC13C0F0FE0EC01E1542
:100A500010F09D2C0AC09D2C9E0C911A1E2D05C0D5
:100A600080E290E0B3015ED01F5F1E15C8F304C0A2
:100A70001E1510F4E11A01C0EE2404FF0EC080E33D
:100A800090E0B3014FD002FF1BC001FD03C088E717
:100A900090E00EC088E590E00BC0802F867881F052
:100AA00001FF02C08BE201C080E2F7FC8DE290E022
:100AB000B30138D005C080E390E0B30133D09A94FD
:100AC000D914C8F3DA94F101ED0DF11D808190E0A5
:100AD000B30128D0DD20B1F705C080E290E0B3017A
:100AE00021D0EA94EE20C9F750CEF30166817781D8
:100AF000CB012B96E2E1DEC0FC0105906150704015
:100B00000110D8F7809590958E0F9F1F0895FC01D6
:100B10006150704001900110D8F7809590958E0F2C
:100B20009F1F08950F931F93CF93DF938C01EB01C9
:100B30008B8181FF1BC082FF0DC02E813F818C8184
:100B40009D812817390764F4E881F9810193F983BD
:100B5000E88306C0E885F985802F0995892B31F453
:100B60008E819F8101969F838E8302C00FEF1FEFBE
:100B7000C801DF91CF911F910F910895FA01AA2723
:100B8000283051F1203181F1E8946F936E7F6E5FD0
:100B90007F4F8F4F9F4FAF4FB1E03ED0B4E03CD07E
:100BA000670F781F891F9A1FA11D680F791F8A1F61
:100BB000911DA11D6A0F711D811D911DA11D20D0C8
:100BC00009F468943F912AE0269F11243019305D82
:100BD0003193DEF6CF010895462F4770405D419373
:100BE000B3E00FD0C9F7F6CF462F4F70405D4A33C0
:100BF00018F0495D31FD4052419302D0A9F7EACF88
:100C0000B4E0A6959795879577956795BA95C9F7B6
:100C100000976105710508959B01AC010A2E0694A9
:100C20005795479537952795BA95C9F7620F731F62
:100C3000841F951FA01D0895A1E21A2EAA1BBB1B9D
:100C4000FD010DC0AA1FBB1FEE1FFF1FA217B30798
:100C5000E407F50720F0A21BB30BE40BF50B661FAE
:100C6000771F881F991F1A9469F760957095809572
:100C700090959B01AC01BD01CF0108952F923F9249
:100C80004F925F926F927F928F929F92AF92BF929C
:100C9000CF92DF92EF92FF920F931F93CF93DF9348
:100CA000CDB7DEB7CA1BDB0B0FB6F894DEBF0FBEA5
:100CB000CDBF09942A88398848885F846E847D84F2
:100CC0008C849B84AA84B984C884DF80EE80FD80F4
:100CD0000C811B81AA81B981CE0FD11D0FB6F8946A
:0E0CE000DEBF0FBECDBFED010895F894FFCF2B
:100CEE00426F6F74696E672E2E2E0025752066700A
:100CFE00730A0025752C25642C25640A000A4F4BB7
:100D0E002E0000000002000000009C010000000008
:00000001FF
