:1000000029C043C042C041C040C007C13EC03DC03E
:100010003CC03BC03AC039C038C037C036C035C01C
:1000200034C033C0BAC031C030C02FC02EC02DC0C4
:100030002CC02BC062C064C066C068C06AC06CC0FF
:100040006EC070C072C074C076C078C07AC07CC008
:100050007EC080C011241FBECFEFD4E0DEBFCDBF75
:1000600011E0A0E0B1E0E8E9F2E002C005900D92F5
:10007000AA37B107D9F711E0AAE7B1E001C01D9294
:10008000AB37B107E1F7F3D005C1BACF1092C50085
:100090008CE08093C400E0ECF0E08081826080839B
:1000A00088E98093C10086E08093C2000895982F6C
:1000B0008091C00085FFFCCF9093C6000895809189
:1000C000C00087FFFCCF8091C6000895FC0107C0E7
:1000D0008091C00085FFFCCF31969093C60090813F
:1000E0009923B1F708951F93182FE12FF0E0E03125
:1000F000F105A8F5E65EFF4F099480E091E02CC081
:1001000082E091E029C084E091E026C086E091E0A1
:1001100023C088E091E020C08AE091E01DC08CE01F
:1001200091E01AC08EE091E017C080E191E014C028
:1001300082E191E011C084E191E00EC086E191E09E
:100140000BC088E191E008C08AE191E005C08CE134
:1001500091E002C08EE191E0B9DF1F91089580E047
:10016000C2DF1F70C2CFB2DF8091C00085FFFCCF1D
:100170008DE08093C6008091C00085FFFCCF8AE0AF
:100180008093C600089590E080917A01882309F455
:1001900091E090937A0195B908951F920F920FB64E
:1001A0000F9211242F933F934F935F936F937F93FD
:1001B0008F939F93AF93BF93EF93FF938091C00072
:1001C00087FFFCCF9091C6009D3081F490E0809134
:1001D0007A01882309F491E090937A0195B980E23D
:1001E00091E0C1DF81E291E0BEDF06C08091C000F6
:1001F00085FFFCCF9093C600FF91EF91BF91AF9127
:100200009F918F917F916F915F914F913F912F912E
:100210000F900FBE0F901F9018951F920F920FB660
:100220000F9211242F933F934F935F936F937F937C
:100230008F939F93AF93BF93EF93FF934A9B03C01A
:1002400085E291E002C087E391E08DDFFF91EF91BD
:10025000BF91AF919F918F917F916F915F914F91DE
:100260003F912F910F900FBE0F901F9018950EDFAA
:100270001AB88CEF8BB984E080936D00809368008E
:100280008FEF84B987E491E06EDF8FE691E06BDF5A
:080290007894FFCFF894FFCF32
:1002980030003100320033003400350036003700BA
:1002A8003800390061006200630064006500660080
:1002B800004F4B2E00627574746F6E20312072658A
:1002C8006C656173656400627574746F6E203120AB
:1002D80070757368656400426F6F74696E67204556
:1002E8007268756E6527732073757065722D6769FE
:1002F80067612D6175746F666972652E2E2E002EEA
:0A0308002E2E626F6F7465642100F1
:00000001FF
