:1000000029C089C1AFC141C040C07BC13EC03DC015
:100010003CC03BC03AC039C038C07CC236C035C0D5
:1000200034C033C037C231C030C02FC02EC02DC045
:100030002CC02BC09EC0A0C0A2C0A4C0A6C0A8C097
:10004000AAC0ACC0AEC0B0C0B2C0B4C0B6C0B8C028
:10005000BAC0BCC011241FBECFEFD4E0DEBFCDBFFD
:1000600011E0A0E0B1E0EEE3FEE002C005900D92E9
:10007000AE36B107D9F712E0AEE6B1E001C01D928D
:10008000A232B107E1F7AED15CC2BACF00D000D046
:1000900080E091E0EDB7FEB79283818384E990E040
:1000A0009483838350D282E480936E0181E68093AF
:1000B0006F0194E790937001909371019CE6909387
:1000C000720195E69093730120E22093740127E476
:1000D000209375018093760122E720937701909316
:1000E000780197E69093790190937A0180937B0150
:1000F00010927C0110927D01EEE7F1E00F900F90DD
:100100000F900F901082369682E0E230F807D1F718
:1001100000D000D08CE191E0EDB7FEB792838183EF
:100120008EE691E0948383830ED20F900F900F9010
:100130000F90089508950895EF92FF92CF93DF9363
:10014000E82EE7017E01F92EE70101C08BD18991EC
:100150008823E1F7DF91CF91FF90EF9008951F93EF
:10016000182FE12FF0E0E031F105A8F5E65EFF4F32
:10017000099480E391E02CC082E391E029C084E3FC
:1001800091E026C086E391E023C088E391E020C09F
:100190008AE391E01DC08CE391E01AC08EE391E008
:1001A00017C080E491E014C082E491E011C084E4BF
:1001B00091E00EC086E491E00BC088E491E008C0B5
:1001C0008AE491E005C08CE491E002C08EE491E005
:1001D000B3DF1F91089580E0C2DF1F70C2CFACDF94
:1001E0008DE040D18AE03ED10895EF92FF920F93C7
:1001F0001F937AD1209104023091050240910602AA
:10020000509107027B018C01E21AF30A040B150BD3
:10021000E0920802F092090200930A0210930B0286
:100220006093040270930502809306029093070284
:1002300080910202909103020196909303028093B1
:1002400002021F910F91FF90EF900895EF92FF929D
:100250000F931F9349D120911002309111024091C8
:100260001202509113027B018C01E21AF30A040B73
:10027000150BE0921402F0921502009316021093EF
:1002800017026093100270931102809312029093F0
:10029000130280910C0290910D02A0910E02B09178
:1002A0000F020196A11DB11D80930C0290930D02C7
:1002B000A0930E02B0930F021F910F91FF90EF9049
:1002C0000895609108027091090280910A0290914C
:1002D0000B0226E0660F771F881F991F2A95D1F71A
:1002E0000CD29B01AC0160E876E988E99BE471D10E
:1002F00020E030E04AE754E48ED2D3D1CB01089518
:1003000008951F920F920FB60F9211240F900FBEF7
:100310000F901F9018951F920F920FB60F921124F5
:100320002F933F934F935F936F937F938F939F93FD
:10033000AF93BF93EF93FF9358DF1092190210927F
:100340001802FF91EF91BF91AF919F918F917F9193
:100350006F915F914F913F912F910F900FBE0F9032
:100360001F9018951F920F920FB60F9211242F9382
:100370003F934F935F936F937F938F939F93AF932D
:10038000BF93EF93FF9380911802909119029C0103
:100390002F5F3F4F309319022093180224E62A95CD
:1003A000F1F7C2978233910550F481E085B90000DE
:1003B000000015B80000000085B90000000015B865
:1003C00045DFFF91EF91BF91AF919F918F917F9109
:1003D0006F915F914F913F912F910F900FBE0F90B2
:1003E0001F90189528D080916900826080936900E1
:1003F000E89A80916900886080936900E99A1AB848
:1004000080EF8BB98FEF84B98091810083608093F6
:10041000810080916F00816080936F0080E591E0A2
:10042000A4D080E085B98F5FE7EAF1E63197F1F774
:1004300000C00000F7CF1092C5008AE08093C4008E
:10044000E0ECF0E080818D7F808388E98093C100BB
:1004500086E08093C20080E691E090931F02809333
:100460001E0208959091C00095FFFCCF8093C600B6
:1004700008951F93182F8A3011F48DE0FADF812F31
:10048000F1DF1F9108958091C00087FFFCCF80911C
:10049000C60008951F920F920FB60F9211242F934A
:1004A0003F934F935F936F937F938F939F93AF93FC
:1004B000BF93EF93FF93E7DF8D3021F48BE591E05D
:1004C00054D001C0CFDFFF91EF91BF91AF919F91C9
:1004D0008F917F916F915F914F913F912F910F90ED
:1004E0000FBE0F901F90189520911A0230911B0299
:1004F00040E050E0A90133272227809184009091A9
:100500008500A0E0B0E0282B392B4A2B5B2BB901EA
:10051000CA0108951F920F920FB60F9211248F9364
:100520009F9380911A0290911B02019690931B0257
:1005300080931A029F918F910F900FBE0F901F9082
:100540001895F8947AC4A0E0B0E0E8EAF2E04EC46E
:10055000FE0135966191719180911E0290911F026A
:10056000AF01BCD12096E2E05DC4EF92FF920F9301
:100570001F93CF93DF938C01E0911E02F0911F0235
:10058000838181FF1FC0C0E0D0E00AC0DB01189664
:10059000ED91FC9119970995009711F0CFEFDFEFDE
:1005A000F80181918F0160911E0270911F028823D2
:1005B00069F7DB011896ED91FC9119978AE009958E
:1005C000009711F0CFEFDFEFCE01CDB7DEB7E6E059
:1005D00025C40CD0E6C0DED040F0D5D030F021F4F8
:1005E0005F3F19F0C7C0511110C1CAC0EBD098F3DA
:1005F0009923C9F35523B1F3951B550BBB27AA27A4
:1006000062177307840738F09F5F5F4F220F331F15
:10061000441FAA1FA9F333D00E2E3AF0E0E830D0E1
:1006200091505040E695001CCAF729D0FE2F27D0E4
:10063000660F771F881FBB1F261737074807AB07B2
:10064000B0E809F0BB0B802DBF01FF2793585F4F27
:100650002AF09E3F510568F08DC0D7C05F3FECF394
:10066000983EDCF3869577956795B795F7959F5FEC
:10067000C9F7880F911D9695879597F90895E1E040
:10068000660F771F881FBB1F621773078407BA079F
:1006900020F0621B730B840BBA0BEE1F88F7E095FA
:1006A000089598D088F09F5790F0B92F9927B751A7
:1006B000A0F0D1F0660F771F881F991F1AF0BA9526
:1006C000C9F712C0B13081F09FD0B1E008959CC04D
:1006D000672F782F8827B85F39F0B93FCCF386951C
:1006E00077956795B395D9F73EF490958095709579
:1006F00061957F4F8F4F9F4F0895E89409C097FBF6
:100700003EF490958095709561957F4F8F4F9F4FE8
:100710009923A9F0F92F96E9BB279395F69587952C
:1007200077956795B795F111F8CFFAF4BB0F11F4EF
:1007300060FF1BC06F5F7F4F8F4F9F4F16C0882396
:1007400011F096E911C0772321F09EE8872F762FCC
:1007500005C0662371F096E8862F70E060E02AF00D
:100760009A95660F771F881FDAF7880F96958795F9
:1007700097F9089597F99F6780E870E060E0089521
:100780009FEF80EC089500240A94161617061806A9
:100790000906089500240A94121613061406050685
:1007A0000895092E0394000C11F4882352F0BB0F16
:1007B00040F4BF2B11F460FF04C06F5F7F4F8F4F79
:1007C0009F4F089557FD9058440F551F59F05F3FB4
:1007D00071F04795880F97FB991F61F09F3F79F063
:1007E00087950895121613061406551FF2CF4695E5
:1007F000F1DF08C0161617061806991FF1CF869567
:100800007105610508940895E894BB27662777274A
:10081000CB0197F908950BD0C4CFB5DF28F0BADF2C
:1008200018F0952309F0A6CFABCF1124EECFCADF85
:10083000A0F3959FD1F3950F50E0551F629FF001F3
:10084000729FBB27F00DB11D639FAA27F00DB11D4C
:10085000AA1F649F6627B00DA11D661F829F2227D5
:10086000B00DA11D621F739FB00DA11D621F839F5C
:10087000A00D611D221F749F3327A00D611D231F32
:10088000849F600D211D822F762F6A2F11249F5780
:1008900050408AF0E1F088234AF0EE0FFF1FBB1FA3
:1008A000661F771F881F91505040A9F79E3F510542
:1008B00070F060CFAACF5F3FECF3983EDCF38695F3
:1008C00077956795B795F795E7959F5FC1F7FE2BED
:1008D000880F911D9695879597F90895ACE0B0E043
:1008E000E3E7F4E073C26C011B018A01FC0117828B
:1008F0001682838181FFC4C12E010894411C511CC2
:10090000F6019381F10193FD859193FF81911F0180
:10091000882309F4B1C1853239F493FD859193FFA1
:1009200081911F01853221F490E0B601C5D1E8CF55
:10093000EE24FF2420E02032B0F48B3269F08C32B8
:1009400028F4803251F0833271F40BC08D3239F0CB
:10095000803349F421602CC02260246029C02860C3
:1009600027C0206125C027FD2CC0382F30533A30D6
:1009700098F426FF08C08E2D880FE82EEE0CEE0CA2
:10098000E80EE30E15C08F2D880FF82EFF0CFF0C1C
:10099000F80EF30E20620CC08E3221F426FD6CC1DD
:1009A000206406C08C3611F4206802C0883649F4F1
:1009B000F10193FD859193FF81911F01882309F037
:1009C000BACF982F9554933018F09052933028F462
:1009D0000C5F1F4FFFE3F9830DC0833631F083377F
:1009E00071F0833509F05CC021C0F80180818983F2
:1009F0000E5F1F4F420171E0A72EB12C15C062E0BF
:100A0000662E712C600E711EF8018080918026FF89
:100A100003C06E2D70E002C06FEF7FEFC4012C8722
:100A200040D15C0183012C852F7716C052E0652EE2
:100A3000712C600E711EF8018080918026FF03C02A
:100A40006E2D70E002C06FEF7FEFC4012C871ED1C6
:100A50005C012C852068830123FD1EC007C080E255
:100A600090E0B6012C8728D1FA942C858F2D90E048
:100A7000A816B906A0F310C0F40127FD859127FF41
:100A800081914F0190E0B6012C8716D12C85F11091
:100A9000FA940894A108B108A114B10469F7E9C057
:100AA000843611F0893641F527FF08C0F8016081CE
:100AB0007181828193810C5F1F4F09C0F8016081B1
:100AC0007181882777FD8095982F0E5F1F4F4FE625
:100AD000B42EB22297FF09C09095809570956195CC
:100AE0007F4F8F4F9F4FF0E8BF2AA2012AE030E0EE
:100AF0000FD1782E741844C0853731F43FEEB32EF1
:100B0000B2222AE030E025C099EFB92EB2228F360A
:100B1000C1F0803720F4883509F0AEC00DC08037B1
:100B200021F0883709F0A8C002C020E1B22AB4FE43
:100B30000BC084E0B82A08C0B4FE09C0E6E0BE2AB3
:100B400006C028E030E005C020E130E002C020E12E
:100B500032E0B7FE08C0F801608171818281938123
:100B60000C5F1F4F07C0F8016081718180E090E049
:100B70000E5F1F4FA201CCD0782E7418FFE7BF2262
:100B8000B6FE0BC02EEFB2227E1438F4B4FE07C0BE
:100B9000B2FC05C08FEEB82202C0A72C01C0AE2C5B
:100BA0008B2D90E0B4FE0DC0FE01E70DF11D2081FC
:100BB000203319F4E9EEBE2209C0A394B2FE06C0A8
:100BC00004C086789070009709F0A3948B2C992428
:100BD000B3FC13C0B0FE0EC0AF1428F4E72CEF0C2A
:100BE000EA18AF2C07C0E72C05C080E290E0B60100
:100BF00063D0A394AF14C8F304C0AF1410F4FA1870
:100C000001C0FF2484FE0EC080E390E0B60154D002
:100C100082FE1DC081FE03C088E590E010C088E719
:100C200090E00DC0C40186789070009781F081FC3F
:100C300002C080E201C08BE2B7FC8DE290E0B60119
:100C40003BD005C080E390E0B60136D0EA947E1434
:100C5000C8F37A94F201E70DF11D808190E0B601AE
:100C60002BD07720B1F705C080E290E0B60124D008
:100C7000FA94FF20C9F744CEF6012681378102C0DD
:100C80002FEF3FEFC9012C96E2E1BCC0FC010590BB
:100C9000615070400110D8F7809590958E0F9F1F7E
:100CA0000895FC016150704001900110D8F78095C3
:100CB00090958E0F9F1F08950F931F93CF93DF93EF
:100CC0008C01EB018B8181FF1BC082FF0DC02E8147
:100CD0003F818C819D812817390764F4E881F9816F
:100CE0000193F983E88306C0E885F985802F09958B
:100CF000009731F48E819F8101969F838E8302C07D
:100D00000FEF1FEFC801DF91CF911F910F91089551
:100D1000FA01AA27283051F1203181F1E8946F932C
:100D20006E7F6E5F7F4F8F4F9F4FAF4FB1E03ED0D2
:100D3000B4E03CD0670F781F891F9A1FA11D680F70
:100D4000791F8A1F911DA11D6A0F711D811D911DA3
:100D5000A11D20D009F468943F912AE0269F112418
:100D60003019305D3193DEF6CF010895462F47707C
:100D7000405D4193B3E00FD0C9F7F6CF462F4F70D7
:100D8000405D4A3318F0495D31FD4052419302D035
:100D9000A9F7EACFB4E0A6959795879577956795DB
:100DA000BA95C9F700976105710508959B01AC01DB
:100DB0000A2E06945795479537952795BA95C9F702
:100DC000620F731F841F951FA01D08952F923F92DD
:100DD0004F925F926F927F928F929F92AF92BF924B
:100DE000CF92DF92EF92FF920F931F93CF93DF93F7
:100DF000CDB7DEB7CA1BDB0B0FB6F894DEBF0FBE54
:100E0000CDBF09942A88398848885F846E847D84A0
:100E10008C849B84AA84B984C884DF80EE80FD80A2
:100E20000C811B81AA81B981CE0FD11D0FB6F89418
:0E0E3000DEBF0FBECDBFED010895F894FFCFD9
:100E3E00612070726F66696C65206973202564206D
:100E4E006279746573206C6F6E670A0050726F66FC
:100E5E00696C65202573206C6F616465642E0A00D1
:100E6E0030003100320033003400350036003700D8
:100E7E00380039006100620063006400650066009E
:100E8E00426F6F74696E672E2E2E000A4F4B2E0026
:0E0E9E00000000020000000039020000000009
:00000001FF
