:1000000019C02BC02AC029C028C027C026C025C0BF
:1000100024C023C022C021C020C01FC01EC01DC0DC
:100020001CC01BC058C019C018C017C016C015C0CE
:1000300014C013C011241FBECFEFD4E0DEBFCDBF6C
:1000400011E0A0E0B1E0E0E7F1E002C005900D9220
:10005000AE32B107D9F776D089C0D2CF1092C500A1
:100060008CE08093C400E0ECF0E0808182608083CB
:1000700088E98093C10086E08093C2000895982F9C
:100080008091C00085FFFCCF9093C60008958091B9
:10009000C00087FFFCCF8091C6000895FC0107C017
:1000A0008091C00085FFFCCF31969093C60090816F
:1000B0009923B1F70895F2DF8091C00085FFFCCF4E
:1000C0008DE08093C6008091C00085FFFCCF8AE060
:1000D0008093C60008951F920F920FB60F921124BD
:1000E0002F933F934F935F936F937F938F939F9340
:1000F000AF93BF93EF93FF938091C00087FFFCCF36
:100100009091C6009D3039F480E091E0D4DF81E029
:1001100091E0D1DF06C08091C00085FFFCCF9093B5
:10012000C600FF91EF91BF91AF919F918F917F9109
:100130006F915F914F913F912F910F900FBE0F9054
:100140001F9018958BDF81E084B915B885E091E0A8
:10015000B2DF789480E197E229E130E0F90131974C
:10016000F1F70197D9F780E197E2F8CFF894FFCF44
:10017000004F4B2E00426F6F74696E6720457268A6
:10018000756E6527732073757065722D6769676179
:0E0190002D6175746F666972652E2E2E000249
:00000001FF
